:1008C800546869732070726F6772616D6D61746FBF
:0208D8007200AC
:0608DA00010A61010B415F
:10088C00E4F50CE50C9008C893602EE50C93B50AC2
:10089C0010E509250CF582E43508F583E50BF080AD
:1008AC0014E50C9008C893FFE509250CF582E43596
:0B08BC0008F583EFF0050C80CA80FEF9
:0108C700220E
:03000000020800F3
:0C080000787FE4F6D8FD75810C020847F3
:10080C0002088CE493A3F8E493A34003F68001F26E
:10081C0008DFF48029E493A3F85407240CC8C333ED
:10082C00C4540F4420C8834004F456800146F6DFBC
:10083C00E4800B01020408102040809008DAE47E6A
:10084C00019360BCA3FF543F30E509541FFEE493B1
:10085C00A360010ECF54C025E060A840B8E493A378
:10086C00FAE493A3F8E493A3C8C582C8CAC583CAA3
:10087C00F0A3C8C582C8CAC583CADFE9DEE780BE5B
:0108E0000017
:00000001FF
